{
	"data": {
		"bytecode": {
			"linkReferences": {},
			"object": "60806040523461031857604080519081016001600160401b0381118282101761022b576040908152600d82526c053696d706c6553776170204c5609c1b602083015280519081016001600160401b0381118282101761022b576040526005815264053532d4c560dc1b602082015281516001600160401b03811161022b57600354600181811c9116801561030e575b602082101461020d57601f81116102ab575b50602092601f821160011461024a57928192935f9261023f575b50508160011b915f199060031b1c1916176003555b80516001600160401b03811161022b57600454600181811c91168015610221575b602082101461020d57601f81116101aa575b50602091601f821160011461014a579181925f9261013f575b50508160011b915f199060031b1c1916176004555b604051611337908161031d8239f35b015190505f8061011b565b601f1982169260045f52805f20915f5b8581106101925750836001951061017a575b505050811b01600455610130565b01515f1960f88460031b161c191690555f808061016c565b9192602060018192868501518155019401920161015a565b60045f527f8a35acfbc15ff81a39ae7d344fd709f28e8600b4aa8c65c6b64bfe7fe36bd19b601f830160051c81019160208410610203575b601f0160051c01905b8181106101f85750610102565b5f81556001016101eb565b90915081906101e2565b634e487b7160e01b5f52602260045260245ffd5b90607f16906100f0565b634e487b7160e01b5f52604160045260245ffd5b015190505f806100ba565b601f1982169360035f52805f20915f5b868110610293575083600195961061027b575b505050811b016003556100cf565b01515f1960f88460031b161c191690555f808061026d565b9192602060018192868501518155019401920161025a565b60035f527fc2575a0e9e593c00f959f8c92f12db2869c3395a3b0502d05e2516446f71f85b601f830160051c81019160208410610304575b601f0160051c01905b8181106102f957506100a0565b5f81556001016102ec565b90915081906102e3565b90607f169061008e565b5f80fdfe60806040526004361015610011575f80fd5b5f3560e01c8063054d50d414610e6d57806306fdde0314610db2578063095ea7b314610d3057806318160ddd14610d1357806323b872dd14610c34578063313ce56714610c1957806338ed17391461098257806370a082311461094b578063901754d7146108f057806395d89b41146107f0578063a9059cbb146107bf578063ac41865a146106f2578063baa2abde146104b6578063dd62ed3e146104665763e8e33700146100be575f80fd5b3461046257610100366003190112610462576100d8610ebb565b6100e0610ed1565b606435916044359160a435916084359160c4356001600160a01b03811690819003610462576101134260e4351015611035565b6001600160a01b03828116939081169261012f848614156110a4565b87151580610459575b1561042257610159918689101580610418575b610154906110e3565b611283565b9460018060a01b0382165f52600560205260405f2060018060a01b0387165f5260205260405f20966001885498015491881580610410575b156103065750506101a28989610f5f565b5f60038211156102f85750808060011c600181018091116102e457905b8282106102c55750505b955b6101d7893033886111b4565b6101e38a3033896111b4565b83156102b25761024f8a6102498b6102ae9b610255985f7fddf252ad1be2c89b69c2b068fc378daa952ba7f163c4a11628f55a4df523b3ef60208f61022a81600254610f72565b60025584845283825260408420818154019055604051908152a3610f72565b93610f72565b9261123a565b604080518681526020810188905290810184905233907f43c967b388d3a4ccad3f7ab80167852e322e5a3fde9893f530252281b2ae8b7090606090a4604051938493846040919493926060820195825260208201520152565b0390f35b63ec442f0560e01b5f525f60045260245ffd5b9091506102db826102d68184610f7f565b610f72565b60011c906101bf565b634e487b7160e01b5f52601160045260245ffd5b90156101c9575060016101c9565b91999161031c896103178d8d610f5f565b610f7f565b928084116103bf5750508110610389575b9761033f876103178a60025490610f5f565b801561034b57956101cb565b60405162461bcd60e51b8152602060048201526016602482015275496e73756666696369656e74206c697175696469747960501b6044820152606490fd5b60405162461bcd60e51b815260206004820152600e60248201526d24b739bab33334b1b4b2b73a102160911b6044820152606490fd5b92509850506103d2896103178984610f5f565b9788101561032d5760405162461bcd60e51b815260206004820152600e60248201526d496e73756666696369656e74204160901b6044820152606490fd5b508215610191565b50878a101561014b565b60405162461bcd60e51b815260206004820152600f60248201526e496e76616c696420616d6f756e747360881b6044820152606490fd5b50881515610138565b5f80fd5b346104625760403660031901126104625761047f610ebb565b610487610ed1565b6001600160a01b039182165f908152600160209081526040808320949093168252928352819020549051908152f35b346104625760e0366003190112610462576104cf610ebb565b6104d7610ed1565b9060a43590604435906001600160a01b0383168303610462576104fe4260c4351015611035565b6001600160a01b0381811694908116919061051b868414156110a4565b83156106b95761052a91611283565b94909260018060a01b03841693845f52600560205260405f2060018060a01b0388165f5260205260405f209660018854980154976002549761057e6105738a6103178589610f5f565b996103178c88610f5f565b976064358a1015806106ad575b610594906110e3565b331561069a57335f525f60205260405f205486811061067f576106288b60409d956106238d876106148561062e9d9c9a8f9a5f8c61024f9d889d3384528360205203604083205580600254036002556040519081527fddf252ad1be2c89b69c2b068fc378daa952ba7f163c4a11628f55a4df523b3ef60203392a36111ff565b6001600160a01b0389166111ff565b611097565b93611097565b7fd765e08eef31c0983ecca03ecd166297ac485ecd5dd69e291c848f0a020333c18651806106703394888a846040919493926060820195825260208201520152565b0390a482519182526020820152f35b869063391434e360e21b5f523360045260245260445260645ffd5b634b637e8f60e11b5f525f60045260245ffd5b5060843589101561058b565b60405162461bcd60e51b8152602060048201526011602482015270496e76616c6964206c697175696469747960781b6044820152606490fd5b346104625760403660031901126104625761070b610ebb565b610713610ed1565b906001600160a01b039081169061072e9083168214156110a4565b5f52600560205260405f209060018060a01b03165f5260205260405f206040519061075882610fe3565b61077c600182549283855201546020840192818452151590816107b5575b50610f24565b5190670de0b6b3a7640000820291808304670de0b6b3a764000014901517156102e4576020916107ad915190610f7f565b604051908152f35b9050151584610776565b34610462576040366003190112610462576107e56107db610ebb565b602435903361111d565b602060405160018152f35b34610462575f366003190112610462576040515f6004548060011c906001811680156108e6575b6020831081146108d2578285529081156108ae5750600114610850575b6102ae8361084481850382611013565b60405191829182610e91565b91905060045f527f8a35acfbc15ff81a39ae7d344fd709f28e8600b4aa8c65c6b64bfe7fe36bd19b915f905b80821061089457509091508101602001610844610834565b91926001816020925483858801015201910190929161087c565b60ff191660208086019190915291151560051b840190910191506108449050610834565b634e487b7160e01b5f52602260045260245ffd5b91607f1691610817565b3461046257604036600319011261046257610909610ebb565b610911610ed1565b9060018060a01b03165f52600560205260405f209060018060a01b03165f526020526040805f206001815491015482519182526020820152f35b34610462576020366003190112610462576001600160a01b0361096c610ebb565b165f525f602052602060405f2054604051908152f35b346104625760a03660031901126104625760043560443567ffffffffffffffff8111610462573660238201121561046257806004013567ffffffffffffffff8111610462573660248260051b8401011161046257606435906001600160a01b0382168203610462576109f8426084351015611035565b60028103610be55760405193610a0f606086611013565b6002855260208501936040368637855115610bd1578185528215610bd157610a3960248201611083565b9260011015610bd1576044610a4e9101611083565b60018060a01b03831692835f52600560205260405f2060018060a01b0383165f5260205260405f20916001835493015490610a8a851515610ee7565b83151580610bc8575b610a9c90610f24565b610aa7828587610f9d565b610ab08a611073565b52602435610abd8a611073565b5110610b8d5761024f610aff86610b10966102d68d9c9d9b610ae3848d309033906111b4565b6001600160a01b0387169c610af790611073565b51908d6111ff565b92610b098a611073565b5190611097565b610b1984611073565b5160405191825260208201527fcd3829a3813dc3cdd188fd3d01dcf3268c16be2fdd2dd21d0665418816e4606260403392a4604051918291602083019060208452518091526040830191905f5b818110610b74575050500390f35b8251845285945060209384019390920191600101610b66565b60405162461bcd60e51b8152602060048201526013602482015272125b9cdd59999a58da595b9d081bdd5d1c1d5d606a1b6044820152606490fd5b50811515610a93565b634e487b7160e01b5f52603260045260245ffd5b60405162461bcd60e51b815260206004820152600c60248201526b092dcecc2d8d2c840e0c2e8d60a31b6044820152606490fd5b34610462575f36600319011261046257602060405160128152f35b3461046257606036600319011261046257610c4d610ebb565b610c55610ed1565b6001600160a01b0382165f818152600160209081526040808320338452909152902054909260443592915f198110610c93575b506107e5935061111d565b838110610cf8578415610ce5573315610cd2576107e5945f52600160205260405f2060018060a01b0333165f526020528360405f209103905584610c88565b634a1406b160e11b5f525f60045260245ffd5b63e602df0560e01b5f525f60045260245ffd5b8390637dc7a0d960e11b5f523360045260245260445260645ffd5b34610462575f366003190112610462576020600254604051908152f35b3461046257604036600319011261046257610d49610ebb565b602435903315610ce5576001600160a01b0316908115610cd257335f52600160205260405f20825f526020528060405f20556040519081527f8c5be1e5ebec7d5bd14f71427d1e84f3dd0314c0f7b2291e5b200ac8c7c3b92560203392a3602060405160018152f35b34610462575f366003190112610462576040515f6003548060011c90600181168015610e63575b6020831081146108d2578285529081156108ae5750600114610e05576102ae8361084481850382611013565b91905060035f527fc2575a0e9e593c00f959f8c92f12db2869c3395a3b0502d05e2516446f71f85b915f905b808210610e4957509091508101602001610844610834565b919260018160209254838588010152019101909291610e31565b91607f1691610dd9565b346104625760603660031901126104625760206107ad604435602435600435610f9d565b602060409281835280519182918282860152018484015e5f828201840152601f01601f1916010190565b600435906001600160a01b038216820361046257565b602435906001600160a01b038216820361046257565b15610eee57565b60405162461bcd60e51b815260206004820152600e60248201526d125b9d985b1a5908185b5bdd5b9d60921b6044820152606490fd5b15610f2b57565b60405162461bcd60e51b815260206004820152600c60248201526b4e6f206c697175696469747960a01b6044820152606490fd5b818102929181159184041417156102e457565b919082018092116102e457565b8115610f89570490565b634e487b7160e01b5f52601260045260245ffd5b610fd190610fcb610fd794610fb3831515610ee7565b84151580610fda575b610fc590610f24565b82610f5f565b92610f72565b90610f7f565b90565b50801515610fbc565b6040810190811067ffffffffffffffff821117610fff57604052565b634e487b7160e01b5f52604160045260245ffd5b90601f8019910116810190811067ffffffffffffffff821117610fff57604052565b1561103c57565b60405162461bcd60e51b815260206004820152600f60248201526e111958591b1a5b99481c185cdcd959608a1b6044820152606490fd5b805160011015610bd15760400190565b356001600160a01b03811681036104625790565b919082039182116102e457565b156110ab57565b60405162461bcd60e51b815260206004820152601060248201526f4964656e746963616c20746f6b656e7360801b6044820152606490fd5b156110ea57565b60405162461bcd60e51b815260206004820152600b60248201526a135a5b881b9bdd081b595d60aa1b6044820152606490fd5b6001600160a01b031690811561069a576001600160a01b03169182156102b257815f525f60205260405f205481811061119b57817fddf252ad1be2c89b69c2b068fc378daa952ba7f163c4a11628f55a4df523b3ef92602092855f525f84520360405f2055845f525f825260405f20818154019055604051908152a3565b8263391434e360e21b5f5260045260245260445260645ffd5b6040516323b872dd60e01b60208201526001600160a01b0392831660248201529290911660448301526064808301939093529181526111fd916111f8608483611013565b61129e565b565b60405163a9059cbb60e01b60208201526001600160a01b0390921660248301526044808301939093529181526111fd916111f8606483611013565b9060019293916040519461124d86610fe3565b855260208501928352838060a01b03165f52600560205260405f2090838060a01b03165f5260205260405f209251835551910155565b6001600160a01b03828116908216101561129a5791565b9091565b905f602091828151910182855af1156112f6575f513d6112ed57506001600160a01b0381163b155b6112cd5750565b635274afe760e01b5f9081526001600160a01b0391909116600452602490fd5b600114156112c6565b6040513d5f823e3d90fdfea2646970667358221220299096ffe85eed1a0d6c75ee73ac09dd46a563f88bc9c1c05f0d2abb59b794e064736f6c634300081e0033",
			"opcodes": "PUSH1 0x80 PUSH1 0x40 MSTORE CALLVALUE PUSH2 0x318 JUMPI PUSH1 0x40 DUP1 MLOAD SWAP1 DUP2 ADD PUSH1 0x1 PUSH1 0x1 PUSH1 0x40 SHL SUB DUP2 GT DUP3 DUP3 LT OR PUSH2 0x22B JUMPI PUSH1 0x40 SWAP1 DUP2 MSTORE PUSH1 0xD DUP3 MSTORE PUSH13 0x53696D706C6553776170204C5 PUSH1 0x9C SHL PUSH1 0x20 DUP4 ADD MSTORE DUP1 MLOAD SWAP1 DUP2 ADD PUSH1 0x1 PUSH1 0x1 PUSH1 0x40 SHL SUB DUP2 GT DUP3 DUP3 LT OR PUSH2 0x22B JUMPI PUSH1 0x40 MSTORE PUSH1 0x5 DUP2 MSTORE PUSH5 0x53532D4C5 PUSH1 0xDC SHL PUSH1 0x20 DUP3 ADD MSTORE DUP2 MLOAD PUSH1 0x1 PUSH1 0x1 PUSH1 0x40 SHL SUB DUP2 GT PUSH2 0x22B JUMPI PUSH1 0x3 SLOAD PUSH1 0x1 DUP2 DUP2 SHR SWAP2 AND DUP1 ISZERO PUSH2 0x30E JUMPI JUMPDEST PUSH1 0x20 DUP3 LT EQ PUSH2 0x20D JUMPI PUSH1 0x1F DUP2 GT PUSH2 0x2AB JUMPI JUMPDEST POP PUSH1 0x20 SWAP3 PUSH1 0x1F DUP3 GT PUSH1 0x1 EQ PUSH2 0x24A JUMPI SWAP3 DUP2 SWAP3 SWAP4 PUSH0 SWAP3 PUSH2 0x23F JUMPI JUMPDEST POP POP DUP2 PUSH1 0x1 SHL SWAP2 PUSH0 NOT SWAP1 PUSH1 0x3 SHL SHR NOT AND OR PUSH1 0x3 SSTORE JUMPDEST DUP1 MLOAD PUSH1 0x1 PUSH1 0x1 PUSH1 0x40 SHL SUB DUP2 GT PUSH2 0x22B JUMPI PUSH1 0x4 SLOAD PUSH1 0x1 DUP2 DUP2 SHR SWAP2 AND DUP1 ISZERO PUSH2 0x221 JUMPI JUMPDEST PUSH1 0x20 DUP3 LT EQ PUSH2 0x20D JUMPI PUSH1 0x1F DUP2 GT PUSH2 0x1AA JUMPI JUMPDEST POP PUSH1 0x20 SWAP2 PUSH1 0x1F DUP3 GT PUSH1 0x1 EQ PUSH2 0x14A JUMPI SWAP2 DUP2 SWAP3 PUSH0 SWAP3 PUSH2 0x13F JUMPI JUMPDEST POP POP DUP2 PUSH1 0x1 SHL SWAP2 PUSH0 NOT SWAP1 PUSH1 0x3 SHL SHR NOT AND OR PUSH1 0x4 SSTORE JUMPDEST PUSH1 0x40 MLOAD PUSH2 0x1337 SWAP1 DUP2 PUSH2 0x31D DUP3 CODECOPY RETURN JUMPDEST ADD MLOAD SWAP1 POP PUSH0 DUP1 PUSH2 0x11B JUMP JUMPDEST PUSH1 0x1F NOT DUP3 AND SWAP3 PUSH1 0x4 PUSH0 MSTORE DUP1 PUSH0 KECCAK256 SWAP2 PUSH0 JUMPDEST DUP6 DUP2 LT PUSH2 0x192 JUMPI POP DUP4 PUSH1 0x1 SWAP6 LT PUSH2 0x17A JUMPI JUMPDEST POP POP POP DUP2 SHL ADD PUSH1 0x4 SSTORE PUSH2 0x130 JUMP JUMPDEST ADD MLOAD PUSH0 NOT PUSH1 0xF8 DUP5 PUSH1 0x3 SHL AND SHR NOT AND SWAP1 SSTORE PUSH0 DUP1 DUP1 PUSH2 0x16C JUMP JUMPDEST SWAP2 SWAP3 PUSH1 0x20 PUSH1 0x1 DUP2 SWAP3 DUP7 DUP6 ADD MLOAD DUP2 SSTORE ADD SWAP5 ADD SWAP3 ADD PUSH2 0x15A JUMP JUMPDEST PUSH1 0x4 PUSH0 MSTORE PUSH32 0x8A35ACFBC15FF81A39AE7D344FD709F28E8600B4AA8C65C6B64BFE7FE36BD19B PUSH1 0x1F DUP4 ADD PUSH1 0x5 SHR DUP2 ADD SWAP2 PUSH1 0x20 DUP5 LT PUSH2 0x203 JUMPI JUMPDEST PUSH1 0x1F ADD PUSH1 0x5 SHR ADD SWAP1 JUMPDEST DUP2 DUP2 LT PUSH2 0x1F8 JUMPI POP PUSH2 0x102 JUMP JUMPDEST PUSH0 DUP2 SSTORE PUSH1 0x1 ADD PUSH2 0x1EB JUMP JUMPDEST SWAP1 SWAP2 POP DUP2 SWAP1 PUSH2 0x1E2 JUMP JUMPDEST PUSH4 0x4E487B71 PUSH1 0xE0 SHL PUSH0 MSTORE PUSH1 0x22 PUSH1 0x4 MSTORE PUSH1 0x24 PUSH0 REVERT JUMPDEST SWAP1 PUSH1 0x7F AND SWAP1 PUSH2 0xF0 JUMP JUMPDEST PUSH4 0x4E487B71 PUSH1 0xE0 SHL PUSH0 MSTORE PUSH1 0x41 PUSH1 0x4 MSTORE PUSH1 0x24 PUSH0 REVERT JUMPDEST ADD MLOAD SWAP1 POP PUSH0 DUP1 PUSH2 0xBA JUMP JUMPDEST PUSH1 0x1F NOT DUP3 AND SWAP4 PUSH1 0x3 PUSH0 MSTORE DUP1 PUSH0 KECCAK256 SWAP2 PUSH0 JUMPDEST DUP7 DUP2 LT PUSH2 0x293 JUMPI POP DUP4 PUSH1 0x1 SWAP6 SWAP7 LT PUSH2 0x27B JUMPI JUMPDEST POP POP POP DUP2 SHL ADD PUSH1 0x3 SSTORE PUSH2 0xCF JUMP JUMPDEST ADD MLOAD PUSH0 NOT PUSH1 0xF8 DUP5 PUSH1 0x3 SHL AND SHR NOT AND SWAP1 SSTORE PUSH0 DUP1 DUP1 PUSH2 0x26D JUMP JUMPDEST SWAP2 SWAP3 PUSH1 0x20 PUSH1 0x1 DUP2 SWAP3 DUP7 DUP6 ADD MLOAD DUP2 SSTORE ADD SWAP5 ADD SWAP3 ADD PUSH2 0x25A JUMP JUMPDEST PUSH1 0x3 PUSH0 MSTORE PUSH32 0xC2575A0E9E593C00F959F8C92F12DB2869C3395A3B0502D05E2516446F71F85B PUSH1 0x1F DUP4 ADD PUSH1 0x5 SHR DUP2 ADD SWAP2 PUSH1 0x20 DUP5 LT PUSH2 0x304 JUMPI JUMPDEST PUSH1 0x1F ADD PUSH1 0x5 SHR ADD SWAP1 JUMPDEST DUP2 DUP2 LT PUSH2 0x2F9 JUMPI POP PUSH2 0xA0 JUMP JUMPDEST PUSH0 DUP2 SSTORE PUSH1 0x1 ADD PUSH2 0x2EC JUMP JUMPDEST SWAP1 SWAP2 POP DUP2 SWAP1 PUSH2 0x2E3 JUMP JUMPDEST SWAP1 PUSH1 0x7F AND SWAP1 PUSH2 0x8E JUMP JUMPDEST PUSH0 DUP1 REVERT INVALID PUSH1 0x80 PUSH1 0x40 MSTORE PUSH1 0x4 CALLDATASIZE LT ISZERO PUSH2 0x11 JUMPI PUSH0 DUP1 REVERT JUMPDEST PUSH0 CALLDATALOAD PUSH1 0xE0 SHR DUP1 PUSH4 0x54D50D4 EQ PUSH2 0xE6D JUMPI DUP1 PUSH4 0x6FDDE03 EQ PUSH2 0xDB2 JUMPI DUP1 PUSH4 0x95EA7B3 EQ PUSH2 0xD30 JUMPI DUP1 PUSH4 0x18160DDD EQ PUSH2 0xD13 JUMPI DUP1 PUSH4 0x23B872DD EQ PUSH2 0xC34 JUMPI DUP1 PUSH4 0x313CE567 EQ PUSH2 0xC19 JUMPI DUP1 PUSH4 0x38ED1739 EQ PUSH2 0x982 JUMPI DUP1 PUSH4 0x70A08231 EQ PUSH2 0x94B JUMPI DUP1 PUSH4 0x901754D7 EQ PUSH2 0x8F0 JUMPI DUP1 PUSH4 0x95D89B41 EQ PUSH2 0x7F0 JUMPI DUP1 PUSH4 0xA9059CBB EQ PUSH2 0x7BF JUMPI DUP1 PUSH4 0xAC41865A EQ PUSH2 0x6F2 JUMPI DUP1 PUSH4 0xBAA2ABDE EQ PUSH2 0x4B6 JUMPI DUP1 PUSH4 0xDD62ED3E EQ PUSH2 0x466 JUMPI PUSH4 0xE8E33700 EQ PUSH2 0xBE JUMPI PUSH0 DUP1 REVERT JUMPDEST CALLVALUE PUSH2 0x462 JUMPI PUSH2 0x100 CALLDATASIZE PUSH1 0x3 NOT ADD SLT PUSH2 0x462 JUMPI PUSH2 0xD8 PUSH2 0xEBB JUMP JUMPDEST PUSH2 0xE0 PUSH2 0xED1 JUMP JUMPDEST PUSH1 0x64 CALLDATALOAD SWAP2 PUSH1 0x44 CALLDATALOAD SWAP2 PUSH1 0xA4 CALLDATALOAD SWAP2 PUSH1 0x84 CALLDATALOAD SWAP2 PUSH1 0xC4 CALLDATALOAD PUSH1 0x1 PUSH1 0x1 PUSH1 0xA0 SHL SUB DUP2 AND SWAP1 DUP2 SWAP1 SUB PUSH2 0x462 JUMPI PUSH2 0x113 TIMESTAMP PUSH1 0xE4 CALLDATALOAD LT ISZERO PUSH2 0x1035 JUMP JUMPDEST PUSH1 0x1 PUSH1 0x1 PUSH1 0xA0 SHL SUB DUP3 DUP2 AND SWAP4 SWAP1 DUP2 AND SWAP3 PUSH2 0x12F DUP5 DUP7 EQ ISZERO PUSH2 0x10A4 JUMP JUMPDEST DUP8 ISZERO ISZERO DUP1 PUSH2 0x459 JUMPI JUMPDEST ISZERO PUSH2 0x422 JUMPI PUSH2 0x159 SWAP2 DUP7 DUP10 LT ISZERO DUP1 PUSH2 0x418 JUMPI JUMPDEST PUSH2 0x154 SWAP1 PUSH2 0x10E3 JUMP JUMPDEST PUSH2 0x1283 JUMP JUMPDEST SWAP5 PUSH1 0x1 DUP1 PUSH1 0xA0 SHL SUB DUP3 AND PUSH0 MSTORE PUSH1 0x5 PUSH1 0x20 MSTORE PUSH1 0x40 PUSH0 KECCAK256 PUSH1 0x1 DUP1 PUSH1 0xA0 SHL SUB DUP8 AND PUSH0 MSTORE PUSH1 0x20 MSTORE PUSH1 0x40 PUSH0 KECCAK256 SWAP7 PUSH1 0x1 DUP9 SLOAD SWAP9 ADD SLOAD SWAP2 DUP9 ISZERO DUP1 PUSH2 0x410 JUMPI JUMPDEST ISZERO PUSH2 0x306 JUMPI POP POP PUSH2 0x1A2 DUP10 DUP10 PUSH2 0xF5F JUMP JUMPDEST PUSH0 PUSH1 0x3 DUP3 GT ISZERO PUSH2 0x2F8 JUMPI POP DUP1 DUP1 PUSH1 0x1 SHR PUSH1 0x1 DUP2 ADD DUP1 SWAP2 GT PUSH2 0x2E4 JUMPI SWAP1 JUMPDEST DUP3 DUP3 LT PUSH2 0x2C5 JUMPI POP POP JUMPDEST SWAP6 JUMPDEST PUSH2 0x1D7 DUP10 ADDRESS CALLER DUP9 PUSH2 0x11B4 JUMP JUMPDEST PUSH2 0x1E3 DUP11 ADDRESS CALLER DUP10 PUSH2 0x11B4 JUMP JUMPDEST DUP4 ISZERO PUSH2 0x2B2 JUMPI PUSH2 0x24F DUP11 PUSH2 0x249 DUP12 PUSH2 0x2AE SWAP12 PUSH2 0x255 SWAP9 PUSH0 PUSH32 0xDDF252AD1BE2C89B69C2B068FC378DAA952BA7F163C4A11628F55A4DF523B3EF PUSH1 0x20 DUP16 PUSH2 0x22A DUP2 PUSH1 0x2 SLOAD PUSH2 0xF72 JUMP JUMPDEST PUSH1 0x2 SSTORE DUP5 DUP5 MSTORE DUP4 DUP3 MSTORE PUSH1 0x40 DUP5 KECCAK256 DUP2 DUP2 SLOAD ADD SWAP1 SSTORE PUSH1 0x40 MLOAD SWAP1 DUP2 MSTORE LOG3 PUSH2 0xF72 JUMP JUMPDEST SWAP4 PUSH2 0xF72 JUMP JUMPDEST SWAP3 PUSH2 0x123A JUMP JUMPDEST PUSH1 0x40 DUP1 MLOAD DUP7 DUP2 MSTORE PUSH1 0x20 DUP2 ADD DUP9 SWAP1 MSTORE SWAP1 DUP2 ADD DUP5 SWAP1 MSTORE CALLER SWAP1 PUSH32 0x43C967B388D3A4CCAD3F7AB80167852E322E5A3FDE9893F530252281B2AE8B70 SWAP1 PUSH1 0x60 SWAP1 LOG4 PUSH1 0x40 MLOAD SWAP4 DUP5 SWAP4 DUP5 PUSH1 0x40 SWAP2 SWAP5 SWAP4 SWAP3 PUSH1 0x60 DUP3 ADD SWAP6 DUP3 MSTORE PUSH1 0x20 DUP3 ADD MSTORE ADD MSTORE JUMP JUMPDEST SUB SWAP1 RETURN JUMPDEST PUSH4 0xEC442F05 PUSH1 0xE0 SHL PUSH0 MSTORE PUSH0 PUSH1 0x4 MSTORE PUSH1 0x24 PUSH0 REVERT JUMPDEST SWAP1 SWAP2 POP PUSH2 0x2DB DUP3 PUSH2 0x2D6 DUP2 DUP5 PUSH2 0xF7F JUMP JUMPDEST PUSH2 0xF72 JUMP JUMPDEST PUSH1 0x1 SHR SWAP1 PUSH2 0x1BF JUMP JUMPDEST PUSH4 0x4E487B71 PUSH1 0xE0 SHL PUSH0 MSTORE PUSH1 0x11 PUSH1 0x4 MSTORE PUSH1 0x24 PUSH0 REVERT JUMPDEST SWAP1 ISZERO PUSH2 0x1C9 JUMPI POP PUSH1 0x1 PUSH2 0x1C9 JUMP JUMPDEST SWAP2 SWAP10 SWAP2 PUSH2 0x31C DUP10 PUSH2 0x317 DUP14 DUP14 PUSH2 0xF5F JUMP JUMPDEST PUSH2 0xF7F JUMP JUMPDEST SWAP3 DUP1 DUP5 GT PUSH2 0x3BF JUMPI POP POP DUP2 LT PUSH2 0x389 JUMPI JUMPDEST SWAP8 PUSH2 0x33F DUP8 PUSH2 0x317 DUP11 PUSH1 0x2 SLOAD SWAP1 PUSH2 0xF5F JUMP JUMPDEST DUP1 ISZERO PUSH2 0x34B JUMPI SWAP6 PUSH2 0x1CB JUMP JUMPDEST PUSH1 0x40 MLOAD PUSH3 0x461BCD PUSH1 0xE5 SHL DUP2 MSTORE PUSH1 0x20 PUSH1 0x4 DUP3 ADD MSTORE PUSH1 0x16 PUSH1 0x24 DUP3 ADD MSTORE PUSH22 0x496E73756666696369656E74206C6971756964697479 PUSH1 0x50 SHL PUSH1 0x44 DUP3 ADD MSTORE PUSH1 0x64 SWAP1 REVERT JUMPDEST PUSH1 0x40 MLOAD PUSH3 0x461BCD PUSH1 0xE5 SHL DUP2 MSTORE PUSH1 0x20 PUSH1 0x4 DUP3 ADD MSTORE PUSH1 0xE PUSH1 0x24 DUP3 ADD MSTORE PUSH14 0x24B739BAB33334B1B4B2B73A1021 PUSH1 0x91 SHL PUSH1 0x44 DUP3 ADD MSTORE PUSH1 0x64 SWAP1 REVERT JUMPDEST SWAP3 POP SWAP9 POP POP PUSH2 0x3D2 DUP10 PUSH2 0x317 DUP10 DUP5 PUSH2 0xF5F JUMP JUMPDEST SWAP8 DUP9 LT ISZERO PUSH2 0x32D JUMPI PUSH1 0x40 MLOAD PUSH3 0x461BCD PUSH1 0xE5 SHL DUP2 MSTORE PUSH1 0x20 PUSH1 0x4 DUP3 ADD MSTORE PUSH1 0xE PUSH1 0x24 DUP3 ADD MSTORE PUSH14 0x496E73756666696369656E742041 PUSH1 0x90 SHL PUSH1 0x44 DUP3 ADD MSTORE PUSH1 0x64 SWAP1 REVERT JUMPDEST POP DUP3 ISZERO PUSH2 0x191 JUMP JUMPDEST POP DUP8 DUP11 LT ISZERO PUSH2 0x14B JUMP JUMPDEST PUSH1 0x40 MLOAD PUSH3 0x461BCD PUSH1 0xE5 SHL DUP2 MSTORE PUSH1 0x20 PUSH1 0x4 DUP3 ADD MSTORE PUSH1 0xF PUSH1 0x24 DUP3 ADD MSTORE PUSH15 0x496E76616C696420616D6F756E7473 PUSH1 0x88 SHL PUSH1 0x44 DUP3 ADD MSTORE PUSH1 0x64 SWAP1 REVERT JUMPDEST POP DUP9 ISZERO ISZERO PUSH2 0x138 JUMP JUMPDEST PUSH0 DUP1 REVERT JUMPDEST CALLVALUE PUSH2 0x462 JUMPI PUSH1 0x40 CALLDATASIZE PUSH1 0x3 NOT ADD SLT PUSH2 0x462 JUMPI PUSH2 0x47F PUSH2 0xEBB JUMP JUMPDEST PUSH2 0x487 PUSH2 0xED1 JUMP JUMPDEST PUSH1 0x1 PUSH1 0x1 PUSH1 0xA0 SHL SUB SWAP2 DUP3 AND PUSH0 SWAP1 DUP2 MSTORE PUSH1 0x1 PUSH1 0x20 SWAP1 DUP2 MSTORE PUSH1 0x40 DUP1 DUP4 KECCAK256 SWAP5 SWAP1 SWAP4 AND DUP3 MSTORE SWAP3 DUP4 MSTORE DUP2 SWAP1 KECCAK256 SLOAD SWAP1 MLOAD SWAP1 DUP2 MSTORE RETURN JUMPDEST CALLVALUE PUSH2 0x462 JUMPI PUSH1 0xE0 CALLDATASIZE PUSH1 0x3 NOT ADD SLT PUSH2 0x462 JUMPI PUSH2 0x4CF PUSH2 0xEBB JUMP JUMPDEST PUSH2 0x4D7 PUSH2 0xED1 JUMP JUMPDEST SWAP1 PUSH1 0xA4 CALLDATALOAD SWAP1 PUSH1 0x44 CALLDATALOAD SWAP1 PUSH1 0x1 PUSH1 0x1 PUSH1 0xA0 SHL SUB DUP4 AND DUP4 SUB PUSH2 0x462 JUMPI PUSH2 0x4FE TIMESTAMP PUSH1 0xC4 CALLDATALOAD LT ISZERO PUSH2 0x1035 JUMP JUMPDEST PUSH1 0x1 PUSH1 0x1 PUSH1 0xA0 SHL SUB DUP2 DUP2 AND SWAP5 SWAP1 DUP2 AND SWAP2 SWAP1 PUSH2 0x51B DUP7 DUP5 EQ ISZERO PUSH2 0x10A4 JUMP JUMPDEST DUP4 ISZERO PUSH2 0x6B9 JUMPI PUSH2 0x52A SWAP2 PUSH2 0x1283 JUMP JUMPDEST SWAP5 SWAP1 SWAP3 PUSH1 0x1 DUP1 PUSH1 0xA0 SHL SUB DUP5 AND SWAP4 DUP5 PUSH0 MSTORE PUSH1 0x5 PUSH1 0x20 MSTORE PUSH1 0x40 PUSH0 KECCAK256 PUSH1 0x1 DUP1 PUSH1 0xA0 SHL SUB DUP9 AND PUSH0 MSTORE PUSH1 0x20 MSTORE PUSH1 0x40 PUSH0 KECCAK256 SWAP7 PUSH1 0x1 DUP9 SLOAD SWAP9 ADD SLOAD SWAP8 PUSH1 0x2 SLOAD SWAP8 PUSH2 0x57E PUSH2 0x573 DUP11 PUSH2 0x317 DUP6 DUP10 PUSH2 0xF5F JUMP JUMPDEST SWAP10 PUSH2 0x317 DUP13 DUP9 PUSH2 0xF5F JUMP JUMPDEST SWAP8 PUSH1 0x64 CALLDATALOAD DUP11 LT ISZERO DUP1 PUSH2 0x6AD JUMPI JUMPDEST PUSH2 0x594 SWAP1 PUSH2 0x10E3 JUMP JUMPDEST CALLER ISZERO PUSH2 0x69A JUMPI CALLER PUSH0 MSTORE PUSH0 PUSH1 0x20 MSTORE PUSH1 0x40 PUSH0 KECCAK256 SLOAD DUP7 DUP2 LT PUSH2 0x67F JUMPI PUSH2 0x628 DUP12 PUSH1 0x40 SWAP14 SWAP6 PUSH2 0x623 DUP14 DUP8 PUSH2 0x614 DUP6 PUSH2 0x62E SWAP14 SWAP13 SWAP11 DUP16 SWAP11 PUSH0 DUP13 PUSH2 0x24F SWAP14 DUP9 SWAP14 CALLER DUP5 MSTORE DUP4 PUSH1 0x20 MSTORE SUB PUSH1 0x40 DUP4 KECCAK256 SSTORE DUP1 PUSH1 0x2 SLOAD SUB PUSH1 0x2 SSTORE PUSH1 0x40 MLOAD SWAP1 DUP2 MSTORE PUSH32 0xDDF252AD1BE2C89B69C2B068FC378DAA952BA7F163C4A11628F55A4DF523B3EF PUSH1 0x20 CALLER SWAP3 LOG3 PUSH2 0x11FF JUMP JUMPDEST PUSH1 0x1 PUSH1 0x1 PUSH1 0xA0 SHL SUB DUP10 AND PUSH2 0x11FF JUMP JUMPDEST PUSH2 0x1097 JUMP JUMPDEST SWAP4 PUSH2 0x1097 JUMP JUMPDEST PUSH32 0xD765E08EEF31C0983ECCA03ECD166297AC485ECD5DD69E291C848F0A020333C1 DUP7 MLOAD DUP1 PUSH2 0x670 CALLER SWAP5 DUP9 DUP11 DUP5 PUSH1 0x40 SWAP2 SWAP5 SWAP4 SWAP3 PUSH1 0x60 DUP3 ADD SWAP6 DUP3 MSTORE PUSH1 0x20 DUP3 ADD MSTORE ADD MSTORE JUMP JUMPDEST SUB SWAP1 LOG4 DUP3 MLOAD SWAP2 DUP3 MSTORE PUSH1 0x20 DUP3 ADD MSTORE RETURN JUMPDEST DUP7 SWAP1 PUSH4 0x391434E3 PUSH1 0xE2 SHL PUSH0 MSTORE CALLER PUSH1 0x4 MSTORE PUSH1 0x24 MSTORE PUSH1 0x44 MSTORE PUSH1 0x64 PUSH0 REVERT JUMPDEST PUSH4 0x4B637E8F PUSH1 0xE1 SHL PUSH0 MSTORE PUSH0 PUSH1 0x4 MSTORE PUSH1 0x24 PUSH0 REVERT JUMPDEST POP PUSH1 0x84 CALLDATALOAD DUP10 LT ISZERO PUSH2 0x58B JUMP JUMPDEST PUSH1 0x40 MLOAD PUSH3 0x461BCD PUSH1 0xE5 SHL DUP2 MSTORE PUSH1 0x20 PUSH1 0x4 DUP3 ADD MSTORE PUSH1 0x11 PUSH1 0x24 DUP3 ADD MSTORE PUSH17 0x496E76616C6964206C6971756964697479 PUSH1 0x78 SHL PUSH1 0x44 DUP3 ADD MSTORE PUSH1 0x64 SWAP1 REVERT JUMPDEST CALLVALUE PUSH2 0x462 JUMPI PUSH1 0x40 CALLDATASIZE PUSH1 0x3 NOT ADD SLT PUSH2 0x462 JUMPI PUSH2 0x70B PUSH2 0xEBB JUMP JUMPDEST PUSH2 0x713 PUSH2 0xED1 JUMP JUMPDEST SWAP1 PUSH1 0x1 PUSH1 0x1 PUSH1 0xA0 SHL SUB SWAP1 DUP2 AND SWAP1 PUSH2 0x72E SWAP1 DUP4 AND DUP3 EQ ISZERO PUSH2 0x10A4 JUMP JUMPDEST PUSH0 MSTORE PUSH1 0x5 PUSH1 0x20 MSTORE PUSH1 0x40 PUSH0 KECCAK256 SWAP1 PUSH1 0x1 DUP1 PUSH1 0xA0 SHL SUB AND PUSH0 MSTORE PUSH1 0x20 MSTORE PUSH1 0x40 PUSH0 KECCAK256 PUSH1 0x40 MLOAD SWAP1 PUSH2 0x758 DUP3 PUSH2 0xFE3 JUMP JUMPDEST PUSH2 0x77C PUSH1 0x1 DUP3 SLOAD SWAP3 DUP4 DUP6 MSTORE ADD SLOAD PUSH1 0x20 DUP5 ADD SWAP3 DUP2 DUP5 MSTORE ISZERO ISZERO SWAP1 DUP2 PUSH2 0x7B5 JUMPI JUMPDEST POP PUSH2 0xF24 JUMP JUMPDEST MLOAD SWAP1 PUSH8 0xDE0B6B3A7640000 DUP3 MUL SWAP2 DUP1 DUP4 DIV PUSH8 0xDE0B6B3A7640000 EQ SWAP1 ISZERO OR ISZERO PUSH2 0x2E4 JUMPI PUSH1 0x20 SWAP2 PUSH2 0x7AD SWAP2 MLOAD SWAP1 PUSH2 0xF7F JUMP JUMPDEST PUSH1 0x40 MLOAD SWAP1 DUP2 MSTORE RETURN JUMPDEST SWAP1 POP ISZERO ISZERO DUP5 PUSH2 0x776 JUMP JUMPDEST CALLVALUE PUSH2 0x462 JUMPI PUSH1 0x40 CALLDATASIZE PUSH1 0x3 NOT ADD SLT PUSH2 0x462 JUMPI PUSH2 0x7E5 PUSH2 0x7DB PUSH2 0xEBB JUMP JUMPDEST PUSH1 0x24 CALLDATALOAD SWAP1 CALLER PUSH2 0x111D JUMP JUMPDEST PUSH1 0x20 PUSH1 0x40 MLOAD PUSH1 0x1 DUP2 MSTORE RETURN JUMPDEST CALLVALUE PUSH2 0x462 JUMPI PUSH0 CALLDATASIZE PUSH1 0x3 NOT ADD SLT PUSH2 0x462 JUMPI PUSH1 0x40 MLOAD PUSH0 PUSH1 0x4 SLOAD DUP1 PUSH1 0x1 SHR SWAP1 PUSH1 0x1 DUP2 AND DUP1 ISZERO PUSH2 0x8E6 JUMPI JUMPDEST PUSH1 0x20 DUP4 LT DUP2 EQ PUSH2 0x8D2 JUMPI DUP3 DUP6 MSTORE SWAP1 DUP2 ISZERO PUSH2 0x8AE JUMPI POP PUSH1 0x1 EQ PUSH2 0x850 JUMPI JUMPDEST PUSH2 0x2AE DUP4 PUSH2 0x844 DUP2 DUP6 SUB DUP3 PUSH2 0x1013 JUMP JUMPDEST PUSH1 0x40 MLOAD SWAP2 DUP3 SWAP2 DUP3 PUSH2 0xE91 JUMP JUMPDEST SWAP2 SWAP1 POP PUSH1 0x4 PUSH0 MSTORE PUSH32 0x8A35ACFBC15FF81A39AE7D344FD709F28E8600B4AA8C65C6B64BFE7FE36BD19B SWAP2 PUSH0 SWAP1 JUMPDEST DUP1 DUP3 LT PUSH2 0x894 JUMPI POP SWAP1 SWAP2 POP DUP2 ADD PUSH1 0x20 ADD PUSH2 0x844 PUSH2 0x834 JUMP JUMPDEST SWAP2 SWAP3 PUSH1 0x1 DUP2 PUSH1 0x20 SWAP3 SLOAD DUP4 DUP6 DUP9 ADD ADD MSTORE ADD SWAP2 ADD SWAP1 SWAP3 SWAP2 PUSH2 0x87C JUMP JUMPDEST PUSH1 0xFF NOT AND PUSH1 0x20 DUP1 DUP7 ADD SWAP2 SWAP1 SWAP2 MSTORE SWAP2 ISZERO ISZERO PUSH1 0x5 SHL DUP5 ADD SWAP1 SWAP2 ADD SWAP2 POP PUSH2 0x844 SWAP1 POP PUSH2 0x834 JUMP JUMPDEST PUSH4 0x4E487B71 PUSH1 0xE0 SHL PUSH0 MSTORE PUSH1 0x22 PUSH1 0x4 MSTORE PUSH1 0x24 PUSH0 REVERT JUMPDEST SWAP2 PUSH1 0x7F AND SWAP2 PUSH2 0x817 JUMP JUMPDEST CALLVALUE PUSH2 0x462 JUMPI PUSH1 0x40 CALLDATASIZE PUSH1 0x3 NOT ADD SLT PUSH2 0x462 JUMPI PUSH2 0x909 PUSH2 0xEBB JUMP JUMPDEST PUSH2 0x911 PUSH2 0xED1 JUMP JUMPDEST SWAP1 PUSH1 0x1 DUP1 PUSH1 0xA0 SHL SUB AND PUSH0 MSTORE PUSH1 0x5 PUSH1 0x20 MSTORE PUSH1 0x40 PUSH0 KECCAK256 SWAP1 PUSH1 0x1 DUP1 PUSH1 0xA0 SHL SUB AND PUSH0 MSTORE PUSH1 0x20 MSTORE PUSH1 0x40 DUP1 PUSH0 KECCAK256 PUSH1 0x1 DUP2 SLOAD SWAP2 ADD SLOAD DUP3 MLOAD SWAP2 DUP3 MSTORE PUSH1 0x20 DUP3 ADD MSTORE RETURN JUMPDEST CALLVALUE PUSH2 0x462 JUMPI PUSH1 0x20 CALLDATASIZE PUSH1 0x3 NOT ADD SLT PUSH2 0x462 JUMPI PUSH1 0x1 PUSH1 0x1 PUSH1 0xA0 SHL SUB PUSH2 0x96C PUSH2 0xEBB JUMP JUMPDEST AND PUSH0 MSTORE PUSH0 PUSH1 0x20 MSTORE PUSH1 0x20 PUSH1 0x40 PUSH0 KECCAK256 SLOAD PUSH1 0x40 MLOAD SWAP1 DUP2 MSTORE RETURN JUMPDEST CALLVALUE PUSH2 0x462 JUMPI PUSH1 0xA0 CALLDATASIZE PUSH1 0x3 NOT ADD SLT PUSH2 0x462 JUMPI PUSH1 0x4 CALLDATALOAD PUSH1 0x44 CALLDATALOAD PUSH8 0xFFFFFFFFFFFFFFFF DUP2 GT PUSH2 0x462 JUMPI CALLDATASIZE PUSH1 0x23 DUP3 ADD SLT ISZERO PUSH2 0x462 JUMPI DUP1 PUSH1 0x4 ADD CALLDATALOAD PUSH8 0xFFFFFFFFFFFFFFFF DUP2 GT PUSH2 0x462 JUMPI CALLDATASIZE PUSH1 0x24 DUP3 PUSH1 0x5 SHL DUP5 ADD ADD GT PUSH2 0x462 JUMPI PUSH1 0x64 CALLDATALOAD SWAP1 PUSH1 0x1 PUSH1 0x1 PUSH1 0xA0 SHL SUB DUP3 AND DUP3 SUB PUSH2 0x462 JUMPI PUSH2 0x9F8 TIMESTAMP PUSH1 0x84 CALLDATALOAD LT ISZERO PUSH2 0x1035 JUMP JUMPDEST PUSH1 0x2 DUP2 SUB PUSH2 0xBE5 JUMPI PUSH1 0x40 MLOAD SWAP4 PUSH2 0xA0F PUSH1 0x60 DUP7 PUSH2 0x1013 JUMP JUMPDEST PUSH1 0x2 DUP6 MSTORE PUSH1 0x20 DUP6 ADD SWAP4 PUSH1 0x40 CALLDATASIZE DUP7 CALLDATACOPY DUP6 MLOAD ISZERO PUSH2 0xBD1 JUMPI DUP2 DUP6 MSTORE DUP3 ISZERO PUSH2 0xBD1 JUMPI PUSH2 0xA39 PUSH1 0x24 DUP3 ADD PUSH2 0x1083 JUMP JUMPDEST SWAP3 PUSH1 0x1 LT ISZERO PUSH2 0xBD1 JUMPI PUSH1 0x44 PUSH2 0xA4E SWAP2 ADD PUSH2 0x1083 JUMP JUMPDEST PUSH1 0x1 DUP1 PUSH1 0xA0 SHL SUB DUP4 AND SWAP3 DUP4 PUSH0 MSTORE PUSH1 0x5 PUSH1 0x20 MSTORE PUSH1 0x40 PUSH0 KECCAK256 PUSH1 0x1 DUP1 PUSH1 0xA0 SHL SUB DUP4 AND PUSH0 MSTORE PUSH1 0x20 MSTORE PUSH1 0x40 PUSH0 KECCAK256 SWAP2 PUSH1 0x1 DUP4 SLOAD SWAP4 ADD SLOAD SWAP1 PUSH2 0xA8A DUP6 ISZERO ISZERO PUSH2 0xEE7 JUMP JUMPDEST DUP4 ISZERO ISZERO DUP1 PUSH2 0xBC8 JUMPI JUMPDEST PUSH2 0xA9C SWAP1 PUSH2 0xF24 JUMP JUMPDEST PUSH2 0xAA7 DUP3 DUP6 DUP8 PUSH2 0xF9D JUMP JUMPDEST PUSH2 0xAB0 DUP11 PUSH2 0x1073 JUMP JUMPDEST MSTORE PUSH1 0x24 CALLDATALOAD PUSH2 0xABD DUP11 PUSH2 0x1073 JUMP JUMPDEST MLOAD LT PUSH2 0xB8D JUMPI PUSH2 0x24F PUSH2 0xAFF DUP7 PUSH2 0xB10 SWAP7 PUSH2 0x2D6 DUP14 SWAP13 SWAP14 SWAP12 PUSH2 0xAE3 DUP5 DUP14 ADDRESS SWAP1 CALLER SWAP1 PUSH2 0x11B4 JUMP JUMPDEST PUSH1 0x1 PUSH1 0x1 PUSH1 0xA0 SHL SUB DUP8 AND SWAP13 PUSH2 0xAF7 SWAP1 PUSH2 0x1073 JUMP JUMPDEST MLOAD SWAP1 DUP14 PUSH2 0x11FF JUMP JUMPDEST SWAP3 PUSH2 0xB09 DUP11 PUSH2 0x1073 JUMP JUMPDEST MLOAD SWAP1 PUSH2 0x1097 JUMP JUMPDEST PUSH2 0xB19 DUP5 PUSH2 0x1073 JUMP JUMPDEST MLOAD PUSH1 0x40 MLOAD SWAP2 DUP3 MSTORE PUSH1 0x20 DUP3 ADD MSTORE PUSH32 0xCD3829A3813DC3CDD188FD3D01DCF3268C16BE2FDD2DD21D0665418816E46062 PUSH1 0x40 CALLER SWAP3 LOG4 PUSH1 0x40 MLOAD SWAP2 DUP3 SWAP2 PUSH1 0x20 DUP4 ADD SWAP1 PUSH1 0x20 DUP5 MSTORE MLOAD DUP1 SWAP2 MSTORE PUSH1 0x40 DUP4 ADD SWAP2 SWAP1 PUSH0 JUMPDEST DUP2 DUP2 LT PUSH2 0xB74 JUMPI POP POP POP SUB SWAP1 RETURN JUMPDEST DUP3 MLOAD DUP5 MSTORE DUP6 SWAP5 POP PUSH1 0x20 SWAP4 DUP5 ADD SWAP4 SWAP1 SWAP3 ADD SWAP2 PUSH1 0x1 ADD PUSH2 0xB66 JUMP JUMPDEST PUSH1 0x40 MLOAD PUSH3 0x461BCD PUSH1 0xE5 SHL DUP2 MSTORE PUSH1 0x20 PUSH1 0x4 DUP3 ADD MSTORE PUSH1 0x13 PUSH1 0x24 DUP3 ADD MSTORE PUSH19 0x125B9CDD59999A58DA595B9D081BDD5D1C1D5D PUSH1 0x6A SHL PUSH1 0x44 DUP3 ADD MSTORE PUSH1 0x64 SWAP1 REVERT JUMPDEST POP DUP2 ISZERO ISZERO PUSH2 0xA93 JUMP JUMPDEST PUSH4 0x4E487B71 PUSH1 0xE0 SHL PUSH0 MSTORE PUSH1 0x32 PUSH1 0x4 MSTORE PUSH1 0x24 PUSH0 REVERT JUMPDEST PUSH1 0x40 MLOAD PUSH3 0x461BCD PUSH1 0xE5 SHL DUP2 MSTORE PUSH1 0x20 PUSH1 0x4 DUP3 ADD MSTORE PUSH1 0xC PUSH1 0x24 DUP3 ADD MSTORE PUSH12 0x92DCECC2D8D2C840E0C2E8D PUSH1 0xA3 SHL PUSH1 0x44 DUP3 ADD MSTORE PUSH1 0x64 SWAP1 REVERT JUMPDEST CALLVALUE PUSH2 0x462 JUMPI PUSH0 CALLDATASIZE PUSH1 0x3 NOT ADD SLT PUSH2 0x462 JUMPI PUSH1 0x20 PUSH1 0x40 MLOAD PUSH1 0x12 DUP2 MSTORE RETURN JUMPDEST CALLVALUE PUSH2 0x462 JUMPI PUSH1 0x60 CALLDATASIZE PUSH1 0x3 NOT ADD SLT PUSH2 0x462 JUMPI PUSH2 0xC4D PUSH2 0xEBB JUMP JUMPDEST PUSH2 0xC55 PUSH2 0xED1 JUMP JUMPDEST PUSH1 0x1 PUSH1 0x1 PUSH1 0xA0 SHL SUB DUP3 AND PUSH0 DUP2 DUP2 MSTORE PUSH1 0x1 PUSH1 0x20 SWAP1 DUP2 MSTORE PUSH1 0x40 DUP1 DUP4 KECCAK256 CALLER DUP5 MSTORE SWAP1 SWAP2 MSTORE SWAP1 KECCAK256 SLOAD SWAP1 SWAP3 PUSH1 0x44 CALLDATALOAD SWAP3 SWAP2 PUSH0 NOT DUP2 LT PUSH2 0xC93 JUMPI JUMPDEST POP PUSH2 0x7E5 SWAP4 POP PUSH2 0x111D JUMP JUMPDEST DUP4 DUP2 LT PUSH2 0xCF8 JUMPI DUP5 ISZERO PUSH2 0xCE5 JUMPI CALLER ISZERO PUSH2 0xCD2 JUMPI PUSH2 0x7E5 SWAP5 PUSH0 MSTORE PUSH1 0x1 PUSH1 0x20 MSTORE PUSH1 0x40 PUSH0 KECCAK256 PUSH1 0x1 DUP1 PUSH1 0xA0 SHL SUB CALLER AND PUSH0 MSTORE PUSH1 0x20 MSTORE DUP4 PUSH1 0x40 PUSH0 KECCAK256 SWAP2 SUB SWAP1 SSTORE DUP5 PUSH2 0xC88 JUMP JUMPDEST PUSH4 0x4A1406B1 PUSH1 0xE1 SHL PUSH0 MSTORE PUSH0 PUSH1 0x4 MSTORE PUSH1 0x24 PUSH0 REVERT JUMPDEST PUSH4 0xE602DF05 PUSH1 0xE0 SHL PUSH0 MSTORE PUSH0 PUSH1 0x4 MSTORE PUSH1 0x24 PUSH0 REVERT JUMPDEST DUP4 SWAP1 PUSH4 0x7DC7A0D9 PUSH1 0xE1 SHL PUSH0 MSTORE CALLER PUSH1 0x4 MSTORE PUSH1 0x24 MSTORE PUSH1 0x44 MSTORE PUSH1 0x64 PUSH0 REVERT JUMPDEST CALLVALUE PUSH2 0x462 JUMPI PUSH0 CALLDATASIZE PUSH1 0x3 NOT ADD SLT PUSH2 0x462 JUMPI PUSH1 0x20 PUSH1 0x2 SLOAD PUSH1 0x40 MLOAD SWAP1 DUP2 MSTORE RETURN JUMPDEST CALLVALUE PUSH2 0x462 JUMPI PUSH1 0x40 CALLDATASIZE PUSH1 0x3 NOT ADD SLT PUSH2 0x462 JUMPI PUSH2 0xD49 PUSH2 0xEBB JUMP JUMPDEST PUSH1 0x24 CALLDATALOAD SWAP1 CALLER ISZERO PUSH2 0xCE5 JUMPI PUSH1 0x1 PUSH1 0x1 PUSH1 0xA0 SHL SUB AND SWAP1 DUP2 ISZERO PUSH2 0xCD2 JUMPI CALLER PUSH0 MSTORE PUSH1 0x1 PUSH1 0x20 MSTORE PUSH1 0x40 PUSH0 KECCAK256 DUP3 PUSH0 MSTORE PUSH1 0x20 MSTORE DUP1 PUSH1 0x40 PUSH0 KECCAK256 SSTORE PUSH1 0x40 MLOAD SWAP1 DUP2 MSTORE PUSH32 0x8C5BE1E5EBEC7D5BD14F71427D1E84F3DD0314C0F7B2291E5B200AC8C7C3B925 PUSH1 0x20 CALLER SWAP3 LOG3 PUSH1 0x20 PUSH1 0x40 MLOAD PUSH1 0x1 DUP2 MSTORE RETURN JUMPDEST CALLVALUE PUSH2 0x462 JUMPI PUSH0 CALLDATASIZE PUSH1 0x3 NOT ADD SLT PUSH2 0x462 JUMPI PUSH1 0x40 MLOAD PUSH0 PUSH1 0x3 SLOAD DUP1 PUSH1 0x1 SHR SWAP1 PUSH1 0x1 DUP2 AND DUP1 ISZERO PUSH2 0xE63 JUMPI JUMPDEST PUSH1 0x20 DUP4 LT DUP2 EQ PUSH2 0x8D2 JUMPI DUP3 DUP6 MSTORE SWAP1 DUP2 ISZERO PUSH2 0x8AE JUMPI POP PUSH1 0x1 EQ PUSH2 0xE05 JUMPI PUSH2 0x2AE DUP4 PUSH2 0x844 DUP2 DUP6 SUB DUP3 PUSH2 0x1013 JUMP JUMPDEST SWAP2 SWAP1 POP PUSH1 0x3 PUSH0 MSTORE PUSH32 0xC2575A0E9E593C00F959F8C92F12DB2869C3395A3B0502D05E2516446F71F85B SWAP2 PUSH0 SWAP1 JUMPDEST DUP1 DUP3 LT PUSH2 0xE49 JUMPI POP SWAP1 SWAP2 POP DUP2 ADD PUSH1 0x20 ADD PUSH2 0x844 PUSH2 0x834 JUMP JUMPDEST SWAP2 SWAP3 PUSH1 0x1 DUP2 PUSH1 0x20 SWAP3 SLOAD DUP4 DUP6 DUP9 ADD ADD MSTORE ADD SWAP2 ADD SWAP1 SWAP3 SWAP2 PUSH2 0xE31 JUMP JUMPDEST SWAP2 PUSH1 0x7F AND SWAP2 PUSH2 0xDD9 JUMP JUMPDEST CALLVALUE PUSH2 0x462 JUMPI PUSH1 0x60 CALLDATASIZE PUSH1 0x3 NOT ADD SLT PUSH2 0x462 JUMPI PUSH1 0x20 PUSH2 0x7AD PUSH1 0x44 CALLDATALOAD PUSH1 0x24 CALLDATALOAD PUSH1 0x4 CALLDATALOAD PUSH2 0xF9D JUMP JUMPDEST PUSH1 0x20 PUSH1 0x40 SWAP3 DUP2 DUP4 MSTORE DUP1 MLOAD SWAP2 DUP3 SWAP2 DUP3 DUP3 DUP7 ADD MSTORE ADD DUP5 DUP5 ADD MCOPY PUSH0 DUP3 DUP3 ADD DUP5 ADD MSTORE PUSH1 0x1F ADD PUSH1 0x1F NOT AND ADD ADD SWAP1 JUMP JUMPDEST PUSH1 0x4 CALLDATALOAD SWAP1 PUSH1 0x1 PUSH1 0x1 PUSH1 0xA0 SHL SUB DUP3 AND DUP3 SUB PUSH2 0x462 JUMPI JUMP JUMPDEST PUSH1 0x24 CALLDATALOAD SWAP1 PUSH1 0x1 PUSH1 0x1 PUSH1 0xA0 SHL SUB DUP3 AND DUP3 SUB PUSH2 0x462 JUMPI JUMP JUMPDEST ISZERO PUSH2 0xEEE JUMPI JUMP JUMPDEST PUSH1 0x40 MLOAD PUSH3 0x461BCD PUSH1 0xE5 SHL DUP2 MSTORE PUSH1 0x20 PUSH1 0x4 DUP3 ADD MSTORE PUSH1 0xE PUSH1 0x24 DUP3 ADD MSTORE PUSH14 0x125B9D985B1A5908185B5BDD5B9D PUSH1 0x92 SHL PUSH1 0x44 DUP3 ADD MSTORE PUSH1 0x64 SWAP1 REVERT JUMPDEST ISZERO PUSH2 0xF2B JUMPI JUMP JUMPDEST PUSH1 0x40 MLOAD PUSH3 0x461BCD PUSH1 0xE5 SHL DUP2 MSTORE PUSH1 0x20 PUSH1 0x4 DUP3 ADD MSTORE PUSH1 0xC PUSH1 0x24 DUP3 ADD MSTORE PUSH12 0x4E6F206C6971756964697479 PUSH1 0xA0 SHL PUSH1 0x44 DUP3 ADD MSTORE PUSH1 0x64 SWAP1 REVERT JUMPDEST DUP2 DUP2 MUL SWAP3 SWAP2 DUP2 ISZERO SWAP2 DUP5 DIV EQ OR ISZERO PUSH2 0x2E4 JUMPI JUMP JUMPDEST SWAP2 SWAP1 DUP3 ADD DUP1 SWAP3 GT PUSH2 0x2E4 JUMPI JUMP JUMPDEST DUP2 ISZERO PUSH2 0xF89 JUMPI DIV SWAP1 JUMP JUMPDEST PUSH4 0x4E487B71 PUSH1 0xE0 SHL PUSH0 MSTORE PUSH1 0x12 PUSH1 0x4 MSTORE PUSH1 0x24 PUSH0 REVERT JUMPDEST PUSH2 0xFD1 SWAP1 PUSH2 0xFCB PUSH2 0xFD7 SWAP5 PUSH2 0xFB3 DUP4 ISZERO ISZERO PUSH2 0xEE7 JUMP JUMPDEST DUP5 ISZERO ISZERO DUP1 PUSH2 0xFDA JUMPI JUMPDEST PUSH2 0xFC5 SWAP1 PUSH2 0xF24 JUMP JUMPDEST DUP3 PUSH2 0xF5F JUMP JUMPDEST SWAP3 PUSH2 0xF72 JUMP JUMPDEST SWAP1 PUSH2 0xF7F JUMP JUMPDEST SWAP1 JUMP JUMPDEST POP DUP1 ISZERO ISZERO PUSH2 0xFBC JUMP JUMPDEST PUSH1 0x40 DUP2 ADD SWAP1 DUP2 LT PUSH8 0xFFFFFFFFFFFFFFFF DUP3 GT OR PUSH2 0xFFF JUMPI PUSH1 0x40 MSTORE JUMP JUMPDEST PUSH4 0x4E487B71 PUSH1 0xE0 SHL PUSH0 MSTORE PUSH1 0x41 PUSH1 0x4 MSTORE PUSH1 0x24 PUSH0 REVERT JUMPDEST SWAP1 PUSH1 0x1F DUP1 NOT SWAP2 ADD AND DUP2 ADD SWAP1 DUP2 LT PUSH8 0xFFFFFFFFFFFFFFFF DUP3 GT OR PUSH2 0xFFF JUMPI PUSH1 0x40 MSTORE JUMP JUMPDEST ISZERO PUSH2 0x103C JUMPI JUMP JUMPDEST PUSH1 0x40 MLOAD PUSH3 0x461BCD PUSH1 0xE5 SHL DUP2 MSTORE PUSH1 0x20 PUSH1 0x4 DUP3 ADD MSTORE PUSH1 0xF PUSH1 0x24 DUP3 ADD MSTORE PUSH15 0x111958591B1A5B99481C185CDCD959 PUSH1 0x8A SHL PUSH1 0x44 DUP3 ADD MSTORE PUSH1 0x64 SWAP1 REVERT JUMPDEST DUP1 MLOAD PUSH1 0x1 LT ISZERO PUSH2 0xBD1 JUMPI PUSH1 0x40 ADD SWAP1 JUMP JUMPDEST CALLDATALOAD PUSH1 0x1 PUSH1 0x1 PUSH1 0xA0 SHL SUB DUP2 AND DUP2 SUB PUSH2 0x462 JUMPI SWAP1 JUMP JUMPDEST SWAP2 SWAP1 DUP3 SUB SWAP2 DUP3 GT PUSH2 0x2E4 JUMPI JUMP JUMPDEST ISZERO PUSH2 0x10AB JUMPI JUMP JUMPDEST PUSH1 0x40 MLOAD PUSH3 0x461BCD PUSH1 0xE5 SHL DUP2 MSTORE PUSH1 0x20 PUSH1 0x4 DUP3 ADD MSTORE PUSH1 0x10 PUSH1 0x24 DUP3 ADD MSTORE PUSH16 0x4964656E746963616C20746F6B656E73 PUSH1 0x80 SHL PUSH1 0x44 DUP3 ADD MSTORE PUSH1 0x64 SWAP1 REVERT JUMPDEST ISZERO PUSH2 0x10EA JUMPI JUMP JUMPDEST PUSH1 0x40 MLOAD PUSH3 0x461BCD PUSH1 0xE5 SHL DUP2 MSTORE PUSH1 0x20 PUSH1 0x4 DUP3 ADD MSTORE PUSH1 0xB PUSH1 0x24 DUP3 ADD MSTORE PUSH11 0x135A5B881B9BDD081B595D PUSH1 0xAA SHL PUSH1 0x44 DUP3 ADD MSTORE PUSH1 0x64 SWAP1 REVERT JUMPDEST PUSH1 0x1 PUSH1 0x1 PUSH1 0xA0 SHL SUB AND SWAP1 DUP2 ISZERO PUSH2 0x69A JUMPI PUSH1 0x1 PUSH1 0x1 PUSH1 0xA0 SHL SUB AND SWAP2 DUP3 ISZERO PUSH2 0x2B2 JUMPI DUP2 PUSH0 MSTORE PUSH0 PUSH1 0x20 MSTORE PUSH1 0x40 PUSH0 KECCAK256 SLOAD DUP2 DUP2 LT PUSH2 0x119B JUMPI DUP2 PUSH32 0xDDF252AD1BE2C89B69C2B068FC378DAA952BA7F163C4A11628F55A4DF523B3EF SWAP3 PUSH1 0x20 SWAP3 DUP6 PUSH0 MSTORE PUSH0 DUP5 MSTORE SUB PUSH1 0x40 PUSH0 KECCAK256 SSTORE DUP5 PUSH0 MSTORE PUSH0 DUP3 MSTORE PUSH1 0x40 PUSH0 KECCAK256 DUP2 DUP2 SLOAD ADD SWAP1 SSTORE PUSH1 0x40 MLOAD SWAP1 DUP2 MSTORE LOG3 JUMP JUMPDEST DUP3 PUSH4 0x391434E3 PUSH1 0xE2 SHL PUSH0 MSTORE PUSH1 0x4 MSTORE PUSH1 0x24 MSTORE PUSH1 0x44 MSTORE PUSH1 0x64 PUSH0 REVERT JUMPDEST PUSH1 0x40 MLOAD PUSH4 0x23B872DD PUSH1 0xE0 SHL PUSH1 0x20 DUP3 ADD MSTORE PUSH1 0x1 PUSH1 0x1 PUSH1 0xA0 SHL SUB SWAP3 DUP4 AND PUSH1 0x24 DUP3 ADD MSTORE SWAP3 SWAP1 SWAP2 AND PUSH1 0x44 DUP4 ADD MSTORE PUSH1 0x64 DUP1 DUP4 ADD SWAP4 SWAP1 SWAP4 MSTORE SWAP2 DUP2 MSTORE PUSH2 0x11FD SWAP2 PUSH2 0x11F8 PUSH1 0x84 DUP4 PUSH2 0x1013 JUMP JUMPDEST PUSH2 0x129E JUMP JUMPDEST JUMP JUMPDEST PUSH1 0x40 MLOAD PUSH4 0xA9059CBB PUSH1 0xE0 SHL PUSH1 0x20 DUP3 ADD MSTORE PUSH1 0x1 PUSH1 0x1 PUSH1 0xA0 SHL SUB SWAP1 SWAP3 AND PUSH1 0x24 DUP4 ADD MSTORE PUSH1 0x44 DUP1 DUP4 ADD SWAP4 SWAP1 SWAP4 MSTORE SWAP2 DUP2 MSTORE PUSH2 0x11FD SWAP2 PUSH2 0x11F8 PUSH1 0x64 DUP4 PUSH2 0x1013 JUMP JUMPDEST SWAP1 PUSH1 0x1 SWAP3 SWAP4 SWAP2 PUSH1 0x40 MLOAD SWAP5 PUSH2 0x124D DUP7 PUSH2 0xFE3 JUMP JUMPDEST DUP6 MSTORE PUSH1 0x20 DUP6 ADD SWAP3 DUP4 MSTORE DUP4 DUP1 PUSH1 0xA0 SHL SUB AND PUSH0 MSTORE PUSH1 0x5 PUSH1 0x20 MSTORE PUSH1 0x40 PUSH0 KECCAK256 SWAP1 DUP4 DUP1 PUSH1 0xA0 SHL SUB AND PUSH0 MSTORE PUSH1 0x20 MSTORE PUSH1 0x40 PUSH0 KECCAK256 SWAP3 MLOAD DUP4 SSTORE MLOAD SWAP2 ADD SSTORE JUMP JUMPDEST PUSH1 0x1 PUSH1 0x1 PUSH1 0xA0 SHL SUB DUP3 DUP2 AND SWAP1 DUP3 AND LT ISZERO PUSH2 0x129A JUMPI SWAP2 JUMP JUMPDEST SWAP1 SWAP2 JUMP JUMPDEST SWAP1 PUSH0 PUSH1 0x20 SWAP2 DUP3 DUP2 MLOAD SWAP2 ADD DUP3 DUP6 GAS CALL ISZERO PUSH2 0x12F6 JUMPI PUSH0 MLOAD RETURNDATASIZE PUSH2 0x12ED JUMPI POP PUSH1 0x1 PUSH1 0x1 PUSH1 0xA0 SHL SUB DUP2 AND EXTCODESIZE ISZERO JUMPDEST PUSH2 0x12CD JUMPI POP JUMP JUMPDEST PUSH4 0x5274AFE7 PUSH1 0xE0 SHL PUSH0 SWAP1 DUP2 MSTORE PUSH1 0x1 PUSH1 0x1 PUSH1 0xA0 SHL SUB SWAP2 SWAP1 SWAP2 AND PUSH1 0x4 MSTORE PUSH1 0x24 SWAP1 REVERT JUMPDEST PUSH1 0x1 EQ ISZERO PUSH2 0x12C6 JUMP JUMPDEST PUSH1 0x40 MLOAD RETURNDATASIZE PUSH0 DUP3 RETURNDATACOPY RETURNDATASIZE SWAP1 REVERT INVALID LOG2 PUSH5 0x6970667358 0x22 SLT KECCAK256 0x29 SWAP1 SWAP7 SELFDESTRUCT 0xE8 MCOPY 0xED BYTE 0xD PUSH13 0x75EE73AC09DD46A563F88BC9C1 0xC0 PUSH0 0xD 0x2A 0xBB MSIZE 0xB7 SWAP5 RJUMP 0x6473 PUSH16 0x6C634300081E00330000000000000000 "
		},
		"gasEstimates": {
			"creation": {
				"codeDepositCost": "983800",
				"executionCost": "infinite",
				"totalCost": "infinite"
			},
			"external": {
				"addLiquidity(address,address,uint256,uint256,uint256,uint256,address,uint256)": "infinite",
				"allowance(address,address)": "2851",
				"approve(address,uint256)": "24339",
				"balanceOf(address)": "2551",
				"decimals()": "255",
				"getAmountOut(uint256,uint256,uint256)": "536",
				"getPrice(address,address)": "5314",
				"name()": "infinite",
				"pools(address,address)": "4856",
				"removeLiquidity(address,address,uint256,uint256,uint256,address,uint256)": "infinite",
				"swapExactTokensForTokens(uint256,uint256,address[],address,uint256)": "infinite",
				"symbol()": "infinite",
				"totalSupply()": "2314",
				"transfer(address,uint256)": "50966",
				"transferFrom(address,address,uint256)": "75537"
			},
			"internal": {
				"_calculateLiquidity(uint256,uint256,uint256)": "infinite",
				"_calculateOptimalDeposit(uint256,uint256,uint256,uint256,uint256,uint256)": "infinite",
				"_calculateWithdrawalAmounts(uint256,uint256,uint256)": "infinite",
				"_quote(uint256,uint256,uint256)": "infinite",
				"_safeTransfer(address,address,uint256)": "infinite",
				"_sortTokens(address,address)": "68",
				"_sqrt(uint256)": "infinite",
				"_transferTokens(address,address,uint256,uint256)": "infinite",
				"_updateReserves(address,address,uint256,uint256)": "infinite"
			}
		},
		"methodIdentifiers": {
			"addLiquidity(address,address,uint256,uint256,uint256,uint256,address,uint256)": "e8e33700",
			"allowance(address,address)": "dd62ed3e",
			"approve(address,uint256)": "095ea7b3",
			"balanceOf(address)": "70a08231",
			"decimals()": "313ce567",
			"getAmountOut(uint256,uint256,uint256)": "054d50d4",
			"getPrice(address,address)": "ac41865a",
			"name()": "06fdde03",
			"pools(address,address)": "901754d7",
			"removeLiquidity(address,address,uint256,uint256,uint256,address,uint256)": "baa2abde",
			"swapExactTokensForTokens(uint256,uint256,address[],address,uint256)": "38ed1739",
			"symbol()": "95d89b41",
			"totalSupply()": "18160ddd",
			"transfer(address,uint256)": "a9059cbb",
			"transferFrom(address,address,uint256)": "23b872dd"
		}
	},
	"abi": [
		{
			"inputs": [],
			"stateMutability": "nonpayable",
			"type": "constructor"
		},
		{
			"inputs": [
				{
					"internalType": "address",
					"name": "spender",
					"type": "address"
				},
				{
					"internalType": "uint256",
					"name": "allowance",
					"type": "uint256"
				},
				{
					"internalType": "uint256",
					"name": "needed",
					"type": "uint256"
				}
			],
			"name": "ERC20InsufficientAllowance",
			"type": "error"
		},
		{
			"inputs": [
				{
					"internalType": "address",
					"name": "sender",
					"type": "address"
				},
				{
					"internalType": "uint256",
					"name": "balance",
					"type": "uint256"
				},
				{
					"internalType": "uint256",
					"name": "needed",
					"type": "uint256"
				}
			],
			"name": "ERC20InsufficientBalance",
			"type": "error"
		},
		{
			"inputs": [
				{
					"internalType": "address",
					"name": "approver",
					"type": "address"
				}
			],
			"name": "ERC20InvalidApprover",
			"type": "error"
		},
		{
			"inputs": [
				{
					"internalType": "address",
					"name": "receiver",
					"type": "address"
				}
			],
			"name": "ERC20InvalidReceiver",
			"type": "error"
		},
		{
			"inputs": [
				{
					"internalType": "address",
					"name": "sender",
					"type": "address"
				}
			],
			"name": "ERC20InvalidSender",
			"type": "error"
		},
		{
			"inputs": [
				{
					"internalType": "address",
					"name": "spender",
					"type": "address"
				}
			],
			"name": "ERC20InvalidSpender",
			"type": "error"
		},
		{
			"inputs": [
				{
					"internalType": "address",
					"name": "token",
					"type": "address"
				}
			],
			"name": "SafeERC20FailedOperation",
			"type": "error"
		},
		{
			"anonymous": false,
			"inputs": [
				{
					"indexed": true,
					"internalType": "address",
					"name": "owner",
					"type": "address"
				},
				{
					"indexed": true,
					"internalType": "address",
					"name": "spender",
					"type": "address"
				},
				{
					"indexed": false,
					"internalType": "uint256",
					"name": "value",
					"type": "uint256"
				}
			],
			"name": "Approval",
			"type": "event"
		},
		{
			"anonymous": false,
			"inputs": [
				{
					"indexed": true,
					"internalType": "address",
					"name": "provider",
					"type": "address"
				},
				{
					"indexed": true,
					"internalType": "address",
					"name": "tokenA",
					"type": "address"
				},
				{
					"indexed": true,
					"internalType": "address",
					"name": "tokenB",
					"type": "address"
				},
				{
					"indexed": false,
					"internalType": "uint256",
					"name": "amountA",
					"type": "uint256"
				},
				{
					"indexed": false,
					"internalType": "uint256",
					"name": "amountB",
					"type": "uint256"
				},
				{
					"indexed": false,
					"internalType": "uint256",
					"name": "liquidity",
					"type": "uint256"
				}
			],
			"name": "LiquidityAdded",
			"type": "event"
		},
		{
			"anonymous": false,
			"inputs": [
				{
					"indexed": true,
					"internalType": "address",
					"name": "provider",
					"type": "address"
				},
				{
					"indexed": true,
					"internalType": "address",
					"name": "tokenA",
					"type": "address"
				},
				{
					"indexed": true,
					"internalType": "address",
					"name": "tokenB",
					"type": "address"
				},
				{
					"indexed": false,
					"internalType": "uint256",
					"name": "amountA",
					"type": "uint256"
				},
				{
					"indexed": false,
					"internalType": "uint256",
					"name": "amountB",
					"type": "uint256"
				},
				{
					"indexed": false,
					"internalType": "uint256",
					"name": "liquidity",
					"type": "uint256"
				}
			],
			"name": "LiquidityRemoved",
			"type": "event"
		},
		{
			"anonymous": false,
			"inputs": [
				{
					"indexed": true,
					"internalType": "address",
					"name": "sender",
					"type": "address"
				},
				{
					"indexed": true,
					"internalType": "address",
					"name": "tokenIn",
					"type": "address"
				},
				{
					"indexed": true,
					"internalType": "address",
					"name": "tokenOut",
					"type": "address"
				},
				{
					"indexed": false,
					"internalType": "uint256",
					"name": "amountIn",
					"type": "uint256"
				},
				{
					"indexed": false,
					"internalType": "uint256",
					"name": "amountOut",
					"type": "uint256"
				}
			],
			"name": "Swap",
			"type": "event"
		},
		{
			"anonymous": false,
			"inputs": [
				{
					"indexed": true,
					"internalType": "address",
					"name": "from",
					"type": "address"
				},
				{
					"indexed": true,
					"internalType": "address",
					"name": "to",
					"type": "address"
				},
				{
					"indexed": false,
					"internalType": "uint256",
					"name": "value",
					"type": "uint256"
				}
			],
			"name": "Transfer",
			"type": "event"
		},
		{
			"inputs": [
				{
					"internalType": "address",
					"name": "tokenA",
					"type": "address"
				},
				{
					"internalType": "address",
					"name": "tokenB",
					"type": "address"
				},
				{
					"internalType": "uint256",
					"name": "amountADesired",
					"type": "uint256"
				},
				{
					"internalType": "uint256",
					"name": "amountBDesired",
					"type": "uint256"
				},
				{
					"internalType": "uint256",
					"name": "amountAMin",
					"type": "uint256"
				},
				{
					"internalType": "uint256",
					"name": "amountBMin",
					"type": "uint256"
				},
				{
					"internalType": "address",
					"name": "to",
					"type": "address"
				},
				{
					"internalType": "uint256",
					"name": "deadline",
					"type": "uint256"
				}
			],
			"name": "addLiquidity",
			"outputs": [
				{
					"internalType": "uint256",
					"name": "amountA",
					"type": "uint256"
				},
				{
					"internalType": "uint256",
					"name": "amountB",
					"type": "uint256"
				},
				{
					"internalType": "uint256",
					"name": "liquidity",
					"type": "uint256"
				}
			],
			"stateMutability": "nonpayable",
			"type": "function"
		},
		{
			"inputs": [
				{
					"internalType": "address",
					"name": "owner",
					"type": "address"
				},
				{
					"internalType": "address",
					"name": "spender",
					"type": "address"
				}
			],
			"name": "allowance",
			"outputs": [
				{
					"internalType": "uint256",
					"name": "",
					"type": "uint256"
				}
			],
			"stateMutability": "view",
			"type": "function"
		},
		{
			"inputs": [
				{
					"internalType": "address",
					"name": "spender",
					"type": "address"
				},
				{
					"internalType": "uint256",
					"name": "value",
					"type": "uint256"
				}
			],
			"name": "approve",
			"outputs": [
				{
					"internalType": "bool",
					"name": "",
					"type": "bool"
				}
			],
			"stateMutability": "nonpayable",
			"type": "function"
		},
		{
			"inputs": [
				{
					"internalType": "address",
					"name": "account",
					"type": "address"
				}
			],
			"name": "balanceOf",
			"outputs": [
				{
					"internalType": "uint256",
					"name": "",
					"type": "uint256"
				}
			],
			"stateMutability": "view",
			"type": "function"
		},
		{
			"inputs": [],
			"name": "decimals",
			"outputs": [
				{
					"internalType": "uint8",
					"name": "",
					"type": "uint8"
				}
			],
			"stateMutability": "view",
			"type": "function"
		},
		{
			"inputs": [
				{
					"internalType": "uint256",
					"name": "amountIn",
					"type": "uint256"
				},
				{
					"internalType": "uint256",
					"name": "reserveIn",
					"type": "uint256"
				},
				{
					"internalType": "uint256",
					"name": "reserveOut",
					"type": "uint256"
				}
			],
			"name": "getAmountOut",
			"outputs": [
				{
					"internalType": "uint256",
					"name": "amountOut",
					"type": "uint256"
				}
			],
			"stateMutability": "pure",
			"type": "function"
		},
		{
			"inputs": [
				{
					"internalType": "address",
					"name": "tokenA",
					"type": "address"
				},
				{
					"internalType": "address",
					"name": "tokenB",
					"type": "address"
				}
			],
			"name": "getPrice",
			"outputs": [
				{
					"internalType": "uint256",
					"name": "price",
					"type": "uint256"
				}
			],
			"stateMutability": "view",
			"type": "function"
		},
		{
			"inputs": [],
			"name": "name",
			"outputs": [
				{
					"internalType": "string",
					"name": "",
					"type": "string"
				}
			],
			"stateMutability": "view",
			"type": "function"
		},
		{
			"inputs": [
				{
					"internalType": "address",
					"name": "",
					"type": "address"
				},
				{
					"internalType": "address",
					"name": "",
					"type": "address"
				}
			],
			"name": "pools",
			"outputs": [
				{
					"internalType": "uint256",
					"name": "reserveA",
					"type": "uint256"
				},
				{
					"internalType": "uint256",
					"name": "reserveB",
					"type": "uint256"
				}
			],
			"stateMutability": "view",
			"type": "function"
		},
		{
			"inputs": [
				{
					"internalType": "address",
					"name": "tokenA",
					"type": "address"
				},
				{
					"internalType": "address",
					"name": "tokenB",
					"type": "address"
				},
				{
					"internalType": "uint256",
					"name": "liquidity",
					"type": "uint256"
				},
				{
					"internalType": "uint256",
					"name": "amountAMin",
					"type": "uint256"
				},
				{
					"internalType": "uint256",
					"name": "amountBMin",
					"type": "uint256"
				},
				{
					"internalType": "address",
					"name": "to",
					"type": "address"
				},
				{
					"internalType": "uint256",
					"name": "deadline",
					"type": "uint256"
				}
			],
			"name": "removeLiquidity",
			"outputs": [
				{
					"internalType": "uint256",
					"name": "amountA",
					"type": "uint256"
				},
				{
					"internalType": "uint256",
					"name": "amountB",
					"type": "uint256"
				}
			],
			"stateMutability": "nonpayable",
			"type": "function"
		},
		{
			"inputs": [
				{
					"internalType": "uint256",
					"name": "amountIn",
					"type": "uint256"
				},
				{
					"internalType": "uint256",
					"name": "amountOutMin",
					"type": "uint256"
				},
				{
					"internalType": "address[]",
					"name": "path",
					"type": "address[]"
				},
				{
					"internalType": "address",
					"name": "to",
					"type": "address"
				},
				{
					"internalType": "uint256",
					"name": "deadline",
					"type": "uint256"
				}
			],
			"name": "swapExactTokensForTokens",
			"outputs": [
				{
					"internalType": "uint256[]",
					"name": "amounts",
					"type": "uint256[]"
				}
			],
			"stateMutability": "nonpayable",
			"type": "function"
		},
		{
			"inputs": [],
			"name": "symbol",
			"outputs": [
				{
					"internalType": "string",
					"name": "",
					"type": "string"
				}
			],
			"stateMutability": "view",
			"type": "function"
		},
		{
			"inputs": [],
			"name": "totalSupply",
			"outputs": [
				{
					"internalType": "uint256",
					"name": "",
					"type": "uint256"
				}
			],
			"stateMutability": "view",
			"type": "function"
		},
		{
			"inputs": [
				{
					"internalType": "address",
					"name": "to",
					"type": "address"
				},
				{
					"internalType": "uint256",
					"name": "value",
					"type": "uint256"
				}
			],
			"name": "transfer",
			"outputs": [
				{
					"internalType": "bool",
					"name": "",
					"type": "bool"
				}
			],
			"stateMutability": "nonpayable",
			"type": "function"
		},
		{
			"inputs": [
				{
					"internalType": "address",
					"name": "from",
					"type": "address"
				},
				{
					"internalType": "address",
					"name": "to",
					"type": "address"
				},
				{
					"internalType": "uint256",
					"name": "value",
					"type": "uint256"
				}
			],
			"name": "transferFrom",
			"outputs": [
				{
					"internalType": "bool",
					"name": "",
					"type": "bool"
				}
			],
			"stateMutability": "nonpayable",
			"type": "function"
		}
	]
}